:100000000C9434000C943E000C943E000C943E0082
:100010000C943E000C943E000C943E000C943E0068
:100020000C943E000C943E000C943E000C943E0058
:100030000C943E000C943E000C943E000C943E0048
:100040000C943E000C943E000C943E000C943E0038
:100050000C943E000C943E000C943E000C943E0028
:100060000C943E000C943E0011241FBECFEFD8E04C
:10007000DEBFCDBF0E9440000C9471000C940000C4
:1000800080EF84B98FE085B984E08AB9F1E073B17B
:1000900083B141E0E82FE47082FF40E083B151E09A
:1000A000682F627081FF50E093B1892F8170382FE3
:1000B0003F2721E0611120E024236BB191E0E111A1
:1000C00090E095239823252B2323922B73FB222743
:1000D00020F942238423892B880F880F862B8BB924
:0600E000D6CFF894FFCF1B
:00000001FF
